{
  "contractName": "StoreHash",
  "abi": [
    {
      "constant": false,
      "inputs": [
        {
          "internalType": "uint256",
          "name": "id",
          "type": "uint256"
        },
        {
          "internalType": "string",
          "name": "ipfsHash",
          "type": "string"
        }
      ],
      "name": "sendHash",
      "outputs": [],
      "payable": false,
      "stateMutability": "nonpayable",
      "type": "function"
    },
    {
      "constant": true,
      "inputs": [
        {
          "internalType": "uint256",
          "name": "id",
          "type": "uint256"
        },
        {
          "internalType": "string",
          "name": "hashToVerify",
          "type": "string"
        }
      ],
      "name": "verifyDocument",
      "outputs": [
        {
          "internalType": "bool",
          "name": "",
          "type": "bool"
        }
      ],
      "payable": false,
      "stateMutability": "view",
      "type": "function"
    }
  ],
  "bytecode": "0x608060405234801561001057600080fd5b506103fd806100206000396000f3fe608060405234801561001057600080fd5b50600436106100365760003560e01c8063bd7949751461003b578063d40a2c5d14610100575b600080fd5b6100fe6004803603604081101561005157600080fd5b81019080803590602001909291908035906020019064010000000081111561007857600080fd5b82018360208201111561008a57600080fd5b803590602001918460018302840111640100000000831117156100ac57600080fd5b91908080601f016020809104026020016040519081016040528093929190818152602001838380828437600081840152601f19601f8201169050808301925050505050505091929192905050506101dd565b005b6101c36004803603604081101561011657600080fd5b81019080803590602001909291908035906020019064010000000081111561013d57600080fd5b82018360208201111561014f57600080fd5b8035906020019184600183028401116401000000008311171561017157600080fd5b91908080601f016020809104026020016040519081016040528093929190818152602001838380828437600081840152601f19601f820116905080830192505050505050509192919290505050610209565b604051808215151515815260200191505060405180910390f35b80600160008481526020019081526020016000209080519060200190610204929190610323565b505050565b6000816040516020018082805190602001908083835b60208310610242578051825260208201915060208101905060208303925061021f565b6001836020036101000a038019825116818451168082178552505050505050905001915050604051602081830303815290604052805190602001206001600085815260200190815260200160002060405160200180828054600181600116156101000203166002900480156102ee5780601f106102cc5761010080835404028352918201916102ee565b820191906000526020600020905b8154815290600101906020018083116102da575b5050915050604051602081830303815290604052805190602001201415610318576001905061031d565b600090505b92915050565b828054600181600116156101000203166002900490600052602060002090601f016020900481019282601f1061036457805160ff1916838001178555610392565b82800160010185558215610392579182015b82811115610391578251825591602001919060010190610376565b5b50905061039f91906103a3565b5090565b6103c591905b808211156103c15760008160009055506001016103a9565b5090565b9056fea265627a7a723158205ecd96f882f8343be40834ab1950d2f7df87b1e505be0676ee5ec2a38beb78c764736f6c63430005100032",
  "source": "// SPDX-License-Identifier: MIT\npragma solidity >=0.4.21 <0.7.0;\n\n//0xb84b12e953f5bcf01b05f926728e855f2d4a67a9  contract address on rinkeby\n//deployed using remix \n\ncontract StoreHash {\n string ipfsHash;\n mapping(uint => string) documents;\n\n \n function sendHash(uint256 id, string  memory ipfsHash)  public\n{\n    documents[id] = ipfsHash;\n}\n\nfunction verifyDocument(uint256 id, string memory hashToVerify) view public returns (bool)\n {\n    if(keccak256(abi.encodePacked(documents[id])) == keccak256(abi.encodePacked(hashToVerify )) )\n    {\n        return true;\n    }\n    else\n    {\n        return false;\n    }\n }\n}\n\n",
  "sourcePath": "/home/vinayak/Project/Git/GitHub/same/contracts/StoreHash.sol",
  "compiler": {
    "name": "solc",
    "version": "0.5.16+commit.9c3226ce.Emscripten.clang"
  },
  "schemaVersion": "3.3.3",
  "updatedAt": "2021-07-31T13:37:39.793Z",
  "networkType": "ethereum",
  "devdoc": {
    "methods": {}
  },
  "userdoc": {
    "methods": {}
  }
}